:100000000C9462000C948A000C948A000C948A0070
:100010000C948A000C948A000C948A000C948A0038
:100020000C948A000C948A000C948A000C948A0028
:100030000C948A000C948A000C948A000C948A0018
:100040000C9477040C948A000C9445040C941F04BF
:100050000C948A000C948A000C948A000C948A00F8
:100060000C948A000C948A000000000024002700F1
:100070002A0000000000250028002B0000000000DE
:1000800023002600290004040404040404040202DA
:100090000202020203030303030301020408102007
:1000A0004080010204081020010204081020000012
:1000B0000008000201000003040700000000000027
:1000C0000000C10411241FBECFEFD8E0DEBFCDBFBA
:1000D00011E0A0E0B1E0E0E2FEE002C005900D9288
:1000E000A63EB107D9F722E0A6EEB1E001C01D920D
:1000F000A43AB207E1F710E0C2E6D0E004C02197CD
:10010000FE010E940807C136D107C9F70E940B05FE
:100110000C940E070C940000AF92BF92CF92DF9226
:10012000EF92FF920F931F93CF93DF936C017B01AC
:100130008B01040F151FEB015E01AE18BF08C0173D
:10014000D10759F06991D601ED91FC910190F081B0
:10015000E02DC6010995892B79F7C501DF91CF9173
:100160001F910F91FF90EF90DF90CF90BF90AF90D5
:100170000895FC01538D448D252F30E0842F90E0AD
:10018000821B930B541710F0CF9608950197089592
:10019000FC01918D828D981761F0A28DAE0FBF2F5B
:1001A000B11D5D968C91928D9F5F9F73928F90E0B1
:1001B00008958FEF9FEF0895FC01918D828D981720
:1001C00031F0828DE80FF11D858D90E008958FEF5D
:1001D0009FEF0895FC01918D228D892F90E0805C26
:1001E0009F4F821B91098F73992708958FEE91E09D
:1001F0000E94EA0021E0892B09F420E0822F089573
:1002000080E090E0892B29F00E94F60081110C9487
:1002100000000895FC01A48DA80FB92FB11DA35AA9
:10022000BF4F2C91848D90E001968F739927848F16
:10023000A689B7892C93A089B1898C918370806439
:100240008C93938D848D981306C00288F389E02DDA
:1002500080818F7D80830895EF92FF920F931F938B
:10026000CF93DF93EC0181E0888F9B8D8C8D981369
:100270001AC0E889F989808185FF15C09FB7F89475
:10028000EE89FF896083E889F989808183708064C1
:1002900080839FBF81E090E0DF91CF911F910F910C
:1002A000FF90EF900895F62E0B8D10E00F5F1F4F1B
:1002B0000F731127E02E8C8D8E110CC00FB607FC2A
:1002C000FACFE889F989808185FFF5CFCE010E94B8
:1002D0000A01F1CFEB8DEC0FFD2FF11DE35AFF4F1B
:1002E000F0829FB7F8940B8FEA89FB898081806246
:1002F000CFCFCF93DF93EC01888D8823B9F0AA8903
:10030000BB89E889F9898C9185FD03C0808186FDD0
:100310000DC00FB607FCF7CF8C9185FFF2CF80811F
:1003200085FFEDCFCE010E940A01E9CFDF91CF9189
:100330000895833081F028F4813099F08230A9F05B
:1003400008958730A9F08830C9F08430B1F48091E5
:1003500080008F7D03C0809180008F778093800024
:10036000089584B58F7784BD089584B58F7DFBCFC4
:100370008091B0008F778093B00008958091B00095
:100380008F7DF9CFCF93DF93282F30E0F901E2552D
:10039000FF4F8491F901E656FF4FD491F901EA57D6
:1003A000FF4FC491CC23A1F081110E949901EC2F41
:1003B000F0E0EE0FFF1FE458FF4FA591B491EC91D0
:1003C000ED2381E090E009F480E0DF91CF91089582
:1003D00080E090E0FACF1F93CF93DF93282F30E097
:1003E000F901E255FF4F8491F901E656FF4FD49190
:1003F000F901EA57FF4FC491CC23A9F0162F8111C0
:100400000E949901EC2FF0E0EE0FFF1FEE58FF4F16
:10041000A591B4918FB7F894EC91111108C0D095C3
:10042000DE23DC938FBFDF91CF911F910895DE2BE8
:10043000F8CFCF93DF9390E0FC01E656FF4F249175
:100440008A579F4FFC0184918823D1F090E0880F58
:10045000991FFC01E859FF4FA591B491FC01EE589A
:10046000FF4FC591D49161110EC09FB7F8948C9144
:10047000E22FE0958E238C932881E223E8839FBFAF
:10048000DF91CF9108958FB7F894EC91E22BEC9324
:100490008FBFF6CF8E50806480937C0080917A006D
:1004A000806480937A0080917A0086FDFCCF8091F1
:1004B00078009091790008953FB7F8948091EB010E
:1004C0009091EC01A091ED01B091EE0126B5A89BB1
:1004D00005C02F3F19F00196A11DB11D3FBFBA2FD6
:1004E000A92F982F8827BC01CD01620F711D811D96
:1004F000911D42E0660F771F881F991F4A95D1F71B
:1005000008958F929F92AF92BF92CF92DF92EF9217
:10051000FF924B015C010E945C026B017C010E9416
:100520005C026C197D098E099F09683E7340810544
:100530009105A8F321E0821A9108A108B10888EE7C
:10054000C80E83E0D81EE11CF11C81149104A104A3
:10055000B10429F7FF90EF90DF90CF90BF90AF905C
:100560009F908F900895089590E080E00895FB019A
:1005700001900020E9F73197AF01461B570BDC01D2
:10058000ED91FC910280F381E02D0994CF93DF93EC
:10059000EC0160E08E810E94EB0161E08E810E949F
:1005A000EB0160E08E810E94EB018BE891E0019706
:1005B000F1F7DF91CF910895CF92DF92EF92FF9202
:1005C0000F931F93CF93DF936C017C0187E0E80EBC
:1005D000F11CD0E0C0E0062F10E0B8010C2E02C0E4
:1005E000759567950A94E2F76170F70181917F0133
:1005F0000E94EB012196C430D10579F7C601DF9145
:10060000CF911F910F91FF90EF90DF90CF900C94BE
:10061000C602CF92DF92EF92FF920F931F93CF9378
:10062000DF93EC01F62E642F8C810E94EB018D810B
:100630008F3F19F060E00E94EB010F2D10E08F85D5
:1006400084FF25C06E0187E0C80ED11CF12CE12C7F
:10065000B8010E2C02C0759567950A94E2F7617097
:10066000F60181916F010E94EB01FFEFEF1AFF0A83
:1006700088E0E816F10461F7CE01DF91CF911F9178
:100680000F91FF90EF90DF90CF900C94C602B801CD
:1006900084E0759567958A95E1F7CE010E94DC02AA
:1006A0006F2DCE01DF91CF911F910F91FF90EF90B1
:1006B000DF90CF900C94DC0240E0682F8CE892E051
:1006C0000C94090381E00E945C038BE39FE1019796
:1006D000F1F70895CF93DF93823029F490919B0234
:1006E000986090939B0280939F021092A00280E4F6
:1006F0008093A10280E18093A20280E58093A3020F
:1007000061E0809190020E941902809191028F3FD6
:1007100019F061E00E94190261E0809192020E944A
:100720001902CCE8D2E09E012C58324080919B0205
:1007300084FD0BC084E090E021962817390744F42B
:1007400061E08E810E941902EECF88E090E0F4CF44
:100750008BE39DE00197F1F760E0809190020E94A9
:10076000EB0160E0809192020E94EB018091910286
:100770008F3F19F060E00E94EB0180919B0284FDA5
:1007800034C063E08CE892E00E94DC02CBE4D6E463
:10079000CE010197F1F763E08CE892E00E94DC0261
:1007A0002197F1F763E08CE892E00E94DC0283E598
:1007B00092E00197F1F762E08CE892E00E94DC029F
:1007C00080919B0280620E945C0384E080939C0283
:1007D0008CE00E945C030E94620382E080939D0291
:1007E00086E0DF91CF910C945C0380620E945C03F1
:1007F0008BE496E40197F1F780919B0280620E945E
:100800005C0383E592E00197F1F780919B0280629F
:100810000E945C03D5CF90919F02891710F08FEF53
:10082000890FE82FF0E0E457FD4F848980680C942D
:100830005C0341E00E94090381E090E008951F926B
:100840000F920FB60F9211242F933F934F935F9304
:100850006F937F938F939F93AF93BF93EF93FF9388
:100860008FEE91E00E940A01FF91EF91BF91AF914D
:100870009F918F917F916F915F914F913F912F91B8
:100880000F900FBE0F901F9018951F920F920FB6EA
:100890000F9211242F938F939F93EF93FF93E091E7
:1008A000FF01F09100028081E0910502F0910602C3
:1008B00082FD1BC09081809108028F5F8F73209111
:1008C0000902821741F0E0910802F0E0E151FE4F89
:1008D000958F80930802FF91EF919F918F912F91B7
:1008E0000F900FBE0F901F9018958081F4CF1F922C
:1008F0000F920FB60F9211242F933F938F939F93D4
:10090000AF93BF938091E7019091E801A091E90135
:10091000B091EA013091E60123E0230F2D3758F51D
:100920000196A11DB11D2093E6018093E7019093EC
:10093000E801A093E901B093EA018091EB01909165
:10094000EC01A091ED01B091EE010196A11DB11D48
:100950008093EB019093EC01A093ED01B093EE0135
:10096000BF91AF919F918F913F912F910F900FBEAB
:100970000F901F90189526E8230F0296A11DB11D18
:10098000D2CFEFEEF1E01382128288EE93E0A0E086
:10099000B0E084839583A683B78384E091E091835C
:1009A000808385EC90E09587848784EC90E097873E
:1009B000868780EC90E0918B808B81EC90E0938B2C
:1009C000828B82EC90E0958B848B86EC90E0978B09
:1009D000868B118E128E138E148EECE8F2E0138249
:1009E000128286E191E0918380838CE084838FEF93
:1009F00085838BE0868385E0878384E0808783E03E
:100A0000818782E08287138614861586168617866C
:100A100081E00C946A03789484B5826084BD84B5C7
:100A2000816084BD85B5826085BD85B5816085BDE9
:100A300080916E00816080936E00109281008091A1
:100A40008100826080938100809181008160809329
:100A50008100809180008160809380008091B1004E
:100A600084608093B1008091B00081608093B00079
:100A700080917A00846080937A0080917A0082600D
:100A800080937A0080917A00816080937A008091CF
:100A90007A00806880937A001092C100E091FF0193
:100AA000F091000282E08083E091FB01F091FC0173
:100AB0001082E091FD01F091FE018FEC8083109295
:100AC0000702E0910302F091040286E08083E09146
:100AD0000102F0910202808180618083E091010235
:100AE000F0910202808188608083E0910102F091A0
:100AF0000202808180688083E0910102F09102020D
:100B000080818F7D808382E00E946A0360E087E0BD
:100B10000E94190260E088E00E94190261E086E00C
:100B20000E94190260E08EE00E94190260E08FE0EE
:100B30000E94190260ED77E080E090E00E9481025F
:100B400080E00E940B046EE171E08CE892E00E946C
:100B5000B70281E00E940B046DE271E08CE892E044
:100B60000E94B70260ED77E080E090E00E94810291
:100B700000E010E08EE00E944A02EC018FE00E944B
:100B80004A027C01BE01D7FF02C06D5F7F4F7595A1
:100B9000679575956795072E000C880B990B0E9439
:100BA000A9062B013C0187E00E94C2016C0188E08C
:100BB0000E94C2015C0181E0C816D10409F0BAC0EC
:100BC00061E086E00E94EB010E94620380E00E94E7
:100BD0000B046FE371E08CE892E00E94B7026EE4D0
:100BE00071E08FEE91E00E94B70267E671E08FEE50
:100BF00091E00E94B70264EF71E080E090E00E9413
:100C00008102AA94AB2809F561E086E00E94EB011D
:100C10000E94620380E00E940B0469E771E08CE8A7
:100C200092E00E94B70266E871E08FEE91E00E94C8
:100C3000B70267E671E08FEE91E00E94B70264EFC1
:100C400071E080E090E00E94810220E030E0A901A4
:100C5000C301B2010E94A206811104C060E086E0D7
:100C60000E94EB01C139D14054F161E086E00E945D
:100C7000EB010E94620380E00E940B0460EA71E0D5
:100C80008CE892E00E94B70281E00E940B0466E7C4
:100C900071E08FEE91E00E94B7026FEA71E08FEE93
:100CA00091E00E94B70267E671E08FEE91E00E944A
:100CB000B70264EF71E080E090E00E94810281E978
:100CC000E81681E0F80654F161E086E00E94EB014D
:100CD0000E94620380E00E940B0460EC71E08CE8EB
:100CE00092E00E94B70281E00E940B0466E771E087
:100CF0008FEE91E00E94B70262ED71E08FEE91E01D
:100D00000E94B70267E671E08FEE91E00E94B702A1
:100D100064EF71E080E090E00E948102011511050E
:100D200009F428CF0E94F600882309F423CF0E94FB
:100D3000000020CFCD2809F064CF60E086E00E945B
:100D4000EB015FCF0E94E40608F481E00895E89487
:100D500009C097FB3EF490958095709561957F4F03
:100D60008F4F9F4F9923A9F0F92F96E9BB279395B1
:100D7000F695879577956795B795F111F8CFFAF4C1
:100D8000BB0F11F460FF1BC06F5F7F4F8F4F9F4FF2
:100D900016C0882311F096E911C0772321F09EE850
:100DA000872F762F05C0662371F096E8862F70E0B6
:100DB00060E02AF09A95660F771F881FDAF7880F90
:100DC0009695879597F90895990F0008550FAA0BE6
:100DD000E0E8FEEF16161706E807F907C0F012164E
:100DE0001306E407F50798F0621B730B840B950B51
:100DF00039F40A2661F0232B242B252B21F40895A6
:100E00000A2609F4A140A6958FEF811D811D089542
:100E1000EE0FFF1F0590F491E02D0994F894FFCF99
:100E2000000000002C018C00B9007901EA00C80024
:100E3000DC000000000019048C00B402B302534F20
:100E40004C44494552204845414C5448004D4F4E72
:100E500049544F52494E472053595354454D004829
:100E6000756D616E204465746563746564006875B2
:100E70006D616E206C6F636174696F6E2063686171
:100E80006E6765640D0A004C61743A35364E204C2D
:100E90006F6E3A3836450D0A0074656D70206973BF
:100EA000206869676800486967682074656D70200C
:100EB000526174652044657465637465640D0A004D
:100EC0006D6574616C206465746563746564006D40
:100ED0006574616C2064657465637465640D0A00F3
:100EE0006F62737461636C652064657465637465B7
:100EF00064006F62737461636C652064657465631C
:060F00007465640D0A0097
:00000001FF
